:100000000AC011C010C00FC00EC00DC00CC00BC084
:100010000AC009C008C011271FBFCFE5D0E0DEBF6E
:10002000CDBF33D085C0ECCFCF93DF931F93CDB737
:10003000DEB7CF5FDF4F8883C150D040CF5FDF4F47
:100040004881C150D0405FEF540FCF5FDF4F5883DE
:10005000C150D0404423A9F04FE95FE041505040E7
:10006000E9F700C00000CF5FDF4F4881C150D040AA
:100070005FEF540FCF5FDF4F5883C150D040411323
:10008000EBCF0F91DF91CF91089548ED4CBF17BF93
:100090004CBF16BF11B9D0E0C0E011B94FE95FE025
:1000A00041505040E9F700C00000009B03C0D43627
:1000B00050F401C0D4E0DE5FC63010F4CF5F01C061
:1000C000C1E08D2FB1DFC330D1F028F4C13009F188
:1000D000C230D1F023C0C53041F060F0C630F1F439
:1000E00045E041B941E042B91BC045E041B944E0B7
:1000F00042B916C046E041B942E042B911C046E0FB
:1001000041B944E042B90CC043E041B941E042B9D1
:1001100007C043E041B942E042B902C011B912B987
:100120004FE75EE341505040E9F700C00000B5CF13
:04013000F894FFCF71
:00000001FF
